{
  "contractName": "ChainlinkSelector",
  "abi": [
    {
      "inputs": [
        {
          "internalType": "address",
          "name": "_VRFCoordinator",
          "type": "address"
        },
        {
          "internalType": "address",
          "name": "_LinkToken",
          "type": "address"
        },
        {
          "internalType": "bytes32",
          "name": "_keyHash",
          "type": "bytes32"
        }
      ],
      "stateMutability": "nonpayable",
      "type": "constructor"
    },
    {
      "inputs": [],
      "name": "Linktoken",
      "outputs": [
        {
          "internalType": "address",
          "name": "",
          "type": "address"
        }
      ],
      "stateMutability": "view",
      "type": "function",
      "constant": true
    },
    {
      "inputs": [],
      "name": "VRFCoordinator",
      "outputs": [
        {
          "internalType": "address",
          "name": "",
          "type": "address"
        }
      ],
      "stateMutability": "view",
      "type": "function",
      "constant": true
    },
    {
      "inputs": [],
      "name": "keyHash",
      "outputs": [
        {
          "internalType": "bytes32",
          "name": "",
          "type": "bytes32"
        }
      ],
      "stateMutability": "view",
      "type": "function",
      "constant": true
    },
    {
      "inputs": [],
      "name": "randomResult",
      "outputs": [
        {
          "internalType": "uint256",
          "name": "",
          "type": "uint256"
        }
      ],
      "stateMutability": "view",
      "type": "function",
      "constant": true
    },
    {
      "inputs": [
        {
          "internalType": "bytes32",
          "name": "requestId",
          "type": "bytes32"
        },
        {
          "internalType": "uint256",
          "name": "randomness",
          "type": "uint256"
        }
      ],
      "name": "rawFulfillRandomness",
      "outputs": [],
      "stateMutability": "nonpayable",
      "type": "function"
    },
    {
      "inputs": [],
      "name": "totalDraws",
      "outputs": [
        {
          "internalType": "uint256",
          "name": "",
          "type": "uint256"
        }
      ],
      "stateMutability": "view",
      "type": "function",
      "constant": true
    },
    {
      "inputs": [],
      "name": "setGameAlgo",
      "outputs": [
        {
          "internalType": "bytes32",
          "name": "requestId",
          "type": "bytes32"
        }
      ],
      "stateMutability": "nonpayable",
      "type": "function"
    },
    {
      "inputs": [],
      "name": "getRandomSelector",
      "outputs": [
        {
          "internalType": "uint256",
          "name": "",
          "type": "uint256"
        }
      ],
      "stateMutability": "view",
      "type": "function",
      "constant": true
    }
  ],
  "bytecode": "0x60c06040523480156200001157600080fd5b5060405162000d8438038062000d84833981810160405281019062000037919062000180565b82828173ffffffffffffffffffffffffffffffffffffffff1660a08173ffffffffffffffffffffffffffffffffffffffff1660601b815250508073ffffffffffffffffffffffffffffffffffffffff1660808173ffffffffffffffffffffffffffffffffffffffff1660601b81525050505082600260006101000a81548173ffffffffffffffffffffffffffffffffffffffff021916908373ffffffffffffffffffffffffffffffffffffffff1602179055508060018190555081600560006101000a81548173ffffffffffffffffffffffffffffffffffffffff021916908373ffffffffffffffffffffffffffffffffffffffff16021790555067016345785d8a0000600381905550600060068190555050505062000248565b600081519050620001638162000214565b92915050565b6000815190506200017a816200022e565b92915050565b6000806000606084860312156200019657600080fd5b6000620001a68682870162000152565b9350506020620001b98682870162000152565b9250506040620001cc8682870162000169565b9150509250925092565b6000620001e382620001f4565b9050919050565b6000819050919050565b600073ffffffffffffffffffffffffffffffffffffffff82169050919050565b6200021f81620001d6565b81146200022b57600080fd5b50565b6200023981620001ea565b81146200024557600080fd5b50565b60805160601c60a05160601c610b0262000282600039600081816102fc01526103f601526000818161018201526103ba0152610b026000f3fe608060405234801561001057600080fd5b50600436106100885760003560e01c806342619f661161005b57806342619f661461010557806361728f391461012357806394985ddd14610141578063acd690241461015d57610088565b806304d49b791461008d57806307ed17e3146100ab578063137ef049146100c957806333b60863146100e7575b600080fd5b61009561017b565b6040516100a291906107cf565b60405180910390f35b6100b361029c565b6040516100c09190610776565b60405180910390f35b6100d16102c2565b6040516100de9190610898565b60405180910390f35b6100ef6102c8565b6040516100fc9190610776565b60405180910390f35b61010d6102ee565b60405161011a9190610898565b60405180910390f35b61012b6102f4565b60405161013891906107cf565b60405180910390f35b61015b6004803603810190610156919061060b565b6102fa565b005b610165610396565b6040516101729190610898565b60405180910390f35b60006003547f000000000000000000000000000000000000000000000000000000000000000073ffffffffffffffffffffffffffffffffffffffff166370a08231306040518263ffffffff1660e01b81526004016101d99190610776565b60206040518083038186803b1580156101f157600080fd5b505afa158015610205573d6000803e3d6000fd5b505050506040513d601f19601f820116820180604052508101906102299190610647565b101561026a576040517f08c379a000000000000000000000000000000000000000000000000000000000815260040161026190610858565b60405180910390fd5b61028060016006546103a090919063ffffffff16565b6006819055506102976001546003546006546103b6565b905090565b600560009054906101000a900473ffffffffffffffffffffffffffffffffffffffff1681565b60065481565b600260009054906101000a900473ffffffffffffffffffffffffffffffffffffffff1681565b60045481565b60015481565b7f000000000000000000000000000000000000000000000000000000000000000073ffffffffffffffffffffffffffffffffffffffff163373ffffffffffffffffffffffffffffffffffffffff1614610388576040517f08c379a000000000000000000000000000000000000000000000000000000000815260040161037f90610878565b60405180910390fd5b6103928282610514565b5050565b6000600454905090565b600081836103ae91906108e0565b905092915050565b60007f000000000000000000000000000000000000000000000000000000000000000073ffffffffffffffffffffffffffffffffffffffff16634000aea07f00000000000000000000000000000000000000000000000000000000000000008587866040516020016104299291906107ea565b6040516020818303038152906040526040518463ffffffff1660e01b815260040161045693929190610791565b602060405180830381600087803b15801561047057600080fd5b505af1158015610484573d6000803e3d6000fd5b505050506040513d601f19601f820116820180604052508101906104a891906105e2565b5060006104c98584306000808a81526020019081526020016000205461051f565b90506001600080878152602001908152602001600020546104ea91906108e0565b6000808781526020019081526020016000208190555061050a858261055b565b9150509392505050565b806004819055505050565b6000848484846040516020016105389493929190610813565b6040516020818303038152906040528051906020012060001c9050949350505050565b6000828260405160200161057092919061074a565b60405160208183030381529060405280519060200120905092915050565b60008151905061059d81610a87565b92915050565b6000813590506105b281610a9e565b92915050565b6000813590506105c781610ab5565b92915050565b6000815190506105dc81610ab5565b92915050565b6000602082840312156105f457600080fd5b60006106028482850161058e565b91505092915050565b6000806040838503121561061e57600080fd5b600061062c858286016105a3565b925050602061063d858286016105b8565b9150509250929050565b60006020828403121561065957600080fd5b6000610667848285016105cd565b91505092915050565b61067981610936565b82525050565b61068881610954565b82525050565b61069f61069a82610954565b6109bb565b82525050565b60006106b0826108b3565b6106ba81856108be565b93506106ca818560208601610988565b6106d3816109fe565b840191505092915050565b60006106eb602b836108cf565b91506106f682610a0f565b604082019050919050565b600061070e601f836108cf565b915061071982610a5e565b602082019050919050565b61072d8161097e565b82525050565b61074461073f8261097e565b6109c5565b82525050565b6000610756828561068e565b6020820191506107668284610733565b6020820191508190509392505050565b600060208201905061078b6000830184610670565b92915050565b60006060820190506107a66000830186610670565b6107b36020830185610724565b81810360408301526107c581846106a5565b9050949350505050565b60006020820190506107e4600083018461067f565b92915050565b60006040820190506107ff600083018561067f565b61080c6020830184610724565b9392505050565b6000608082019050610828600083018761067f565b6108356020830186610724565b6108426040830185610670565b61084f6060830184610724565b95945050505050565b60006020820190508181036000830152610871816106de565b9050919050565b6000602082019050818103600083015261089181610701565b9050919050565b60006020820190506108ad6000830184610724565b92915050565b600081519050919050565b600082825260208201905092915050565b600082825260208201905092915050565b60006108eb8261097e565b91506108f68361097e565b9250827fffffffffffffffffffffffffffffffffffffffffffffffffffffffffffffffff0382111561092b5761092a6109cf565b5b828201905092915050565b60006109418261095e565b9050919050565b60008115159050919050565b6000819050919050565b600073ffffffffffffffffffffffffffffffffffffffff82169050919050565b6000819050919050565b60005b838110156109a657808201518184015260208101905061098b565b838111156109b5576000848401525b50505050565b6000819050919050565b6000819050919050565b7f4e487b7100000000000000000000000000000000000000000000000000000000600052601160045260246000fd5b6000601f19601f8301169050919050565b7f4e6f7420656e6f756768204c494e4b202d2066696c6c20636f6e74726163742060008201527f7769746820666175636574000000000000000000000000000000000000000000602082015250565b7f4f6e6c7920565246436f6f7264696e61746f722063616e2066756c66696c6c00600082015250565b610a9081610948565b8114610a9b57600080fd5b50565b610aa781610954565b8114610ab257600080fd5b50565b610abe8161097e565b8114610ac957600080fd5b5056fea26469706673582212206206be6f31a6693cd1d7a71a46f0922e31c38371f64186e15f5e9e76e733dc7264736f6c63430008010033",
  "immutableReferences": {
    "3040": [
      {
        "length": 32,
        "start": 386
      },
      {
        "length": 32,
        "start": 954
      }
    ],
    "3042": [
      {
        "length": 32,
        "start": 764
      },
      {
        "length": 32,
        "start": 1014
      }
    ]
  },
  "source": "// SPDX-License-Identifier: MIT\npragma solidity ^0.8.0;\n\n// const RINKEBY_VRF_COORDINATOR = '0xb3dCcb4Cf7a26f6cf6B120Cf5A73875B7BBc655B'\n// const RINKEBY_LINKTOKEN = '0x01BE23585060835E02B77ef475b0Cc51aA1e0709'\n// const RINKEBY_KEYHASH = '0x2ed0feb3e7fd2022120aa84fab1945545a9f2ffc9076fd6156fa96eaff4c1311'\n\n// matic link = 0x326C977E6efc84E512bB9C30f76E30c160eD06FB\n// matic vrf = 0x8C7382F9D8f56b33781fE506E897a4F1e2d17255\n// matic keyhash = 0x6e75b569a01ef56d18cab6a8e71e6600d6ce853834d4a5748b720d06f878b3a4\n\nimport \"@openzeppelin/contracts/utils/Strings.sol\";\n\nimport \"./link/VRFConsumerBase.sol\";\nimport {SafeMath} from \"./utils/SafeMath.sol\";\n\ncontract ChainlinkSelector is VRFConsumerBase {\n    using SafeMath for uint256;\n    using Strings for string;\n    \n    bytes32 public keyHash;\n    address public VRFCoordinator;\n    uint256 internal fee;\n    uint256 public randomResult;\n    address public Linktoken;\n    uint256 public totalDraws;\n\n    constructor(\n        address _VRFCoordinator,\n        address _LinkToken,\n        bytes32 _keyHash\n    )\n        public\n        VRFConsumerBase(_VRFCoordinator, _LinkToken)\n    {\n        VRFCoordinator = _VRFCoordinator;\n        keyHash = _keyHash;\n        Linktoken = _LinkToken;\n        fee = 0.1 * 10**18; // 0.1 LINK\n        totalDraws = 0;\n    }\n\n    function setGameAlgo() public returns (bytes32 requestId) {\n        require(LINK.balanceOf(address(this)) >= fee, \"Not enough LINK - fill contract with faucet\");\n        totalDraws = totalDraws.add(1);\n        return requestRandomness(keyHash, fee, totalDraws);\n    }\n\n    /**\n     * Callback function used by VRF Coordinator\n     */\n    function fulfillRandomness(bytes32 requestId, uint256 randomness) internal override {\n        randomResult = randomness;\n    }\n\n    function getRandomSelector() public view returns (uint256) {\n        return randomResult;\n    }\n\n    function sqrt(uint256 x) internal view returns (uint256 y) {\n        uint256 z = (x + 1) / 2;\n        y = x;\n        while (z < y) {\n            y = z;\n            z = (x / z + z) / 2;\n        }\n    }\n}",
  "sourcePath": "/Users/sagarbehara/Work/sides/gitcoin/petgram/src/contracts/chainlinkSelector.sol",
  "compiler": {
    "name": "solc",
    "version": "0.8.1+commit.df193b15.Emscripten.clang"
  },
  "schemaVersion": "3.4.1",
  "updatedAt": "2022-07-17T21:39:18.596Z",
  "networkType": "ethereum",
  "devdoc": {
    "kind": "dev",
    "methods": {},
    "version": 1
  },
  "userdoc": {
    "kind": "user",
    "methods": {},
    "version": 1
  }
}