{
  "contractName": "OrchardFunctionality",
  "abi": [
    {
      "inputs": [
        {
          "internalType": "contract IERC20",
          "name": "_tokenAddress",
          "type": "address"
        },
        {
          "internalType": "contract IOrchadDAO",
          "name": "_orchardDAO",
          "type": "address"
        }
      ],
      "stateMutability": "nonpayable",
      "type": "constructor"
    },
    {
      "inputs": [
        {
          "internalType": "uint256",
          "name": "",
          "type": "uint256"
        },
        {
          "internalType": "uint256",
          "name": "",
          "type": "uint256"
        }
      ],
      "name": "orchardsPosts",
      "outputs": [
        {
          "internalType": "uint256",
          "name": "orchardId",
          "type": "uint256"
        },
        {
          "internalType": "string",
          "name": "link",
          "type": "string"
        },
        {
          "internalType": "string",
          "name": "description",
          "type": "string"
        },
        {
          "internalType": "uint256",
          "name": "likes",
          "type": "uint256"
        }
      ],
      "stateMutability": "view",
      "type": "function",
      "constant": true
    },
    {
      "inputs": [
        {
          "internalType": "uint256",
          "name": "",
          "type": "uint256"
        }
      ],
      "name": "posts",
      "outputs": [
        {
          "internalType": "uint256",
          "name": "orchardId",
          "type": "uint256"
        },
        {
          "internalType": "string",
          "name": "link",
          "type": "string"
        },
        {
          "internalType": "string",
          "name": "description",
          "type": "string"
        },
        {
          "internalType": "uint256",
          "name": "likes",
          "type": "uint256"
        }
      ],
      "stateMutability": "view",
      "type": "function",
      "constant": true
    },
    {
      "inputs": [
        {
          "internalType": "uint256",
          "name": "orchardId",
          "type": "uint256"
        }
      ],
      "name": "updateOrchardHarvest",
      "outputs": [],
      "stateMutability": "nonpayable",
      "type": "function"
    },
    {
      "inputs": [
        {
          "internalType": "uint256",
          "name": "orchardID",
          "type": "uint256"
        },
        {
          "internalType": "string",
          "name": "link",
          "type": "string"
        },
        {
          "internalType": "string",
          "name": "description",
          "type": "string"
        }
      ],
      "name": "addPostsOnOrchard",
      "outputs": [],
      "stateMutability": "nonpayable",
      "type": "function"
    }
  ],
  "bytecode": "0x608060405234801561001057600080fd5b50604051610a70380380610a70833981810160405281019061003291906100e4565b816000806101000a81548173ffffffffffffffffffffffffffffffffffffffff021916908373ffffffffffffffffffffffffffffffffffffffff16021790555080600160006101000a81548173ffffffffffffffffffffffffffffffffffffffff021916908373ffffffffffffffffffffffffffffffffffffffff16021790555050506101a4565b6000815190506100c981610176565b92915050565b6000815190506100de8161018d565b92915050565b600080604083850312156100f757600080fd5b6000610105858286016100ba565b9250506020610116858286016100cf565b9150509250929050565b600061012b82610156565b9050919050565b600061013d82610120565b9050919050565b600061014f82610120565b9050919050565b600073ffffffffffffffffffffffffffffffffffffffff82169050919050565b61017f81610132565b811461018a57600080fd5b50565b61019681610144565b81146101a157600080fd5b50565b6108bd806101b36000396000f3fe608060405234801561001057600080fd5b506004361061004c5760003560e01c80630b1e7f8314610051578063beb56fa114610084578063c8c5a75b146100b7578063e86b21cb146100d3575b600080fd5b61006b60048036038101906100669190610561565b6100ef565b60405161007b949392919061068d565b60405180910390f35b61009e60048036038101906100999190610609565b61023f565b6040516100ae949392919061068d565b60405180910390f35b6100d160048036038101906100cc919061058a565b61039c565b005b6100ed60048036038101906100e89190610561565b61043e565b005b600281815481106100ff57600080fd5b90600052602060002090600402016000915090508060000154908060010180546101289061079e565b80601f01602080910402602001604051908101604052809291908181526020018280546101549061079e565b80156101a15780601f10610176576101008083540402835291602001916101a1565b820191906000526020600020905b81548152906001019060200180831161018457829003601f168201915b5050505050908060020180546101b69061079e565b80601f01602080910402602001604051908101604052809291908181526020018280546101e29061079e565b801561022f5780601f106102045761010080835404028352916020019161022f565b820191906000526020600020905b81548152906001019060200180831161021257829003601f168201915b5050505050908060030154905084565b6003602052816000526040600020818154811061025b57600080fd5b9060005260206000209060040201600091509150508060000154908060010180546102859061079e565b80601f01602080910402602001604051908101604052809291908181526020018280546102b19061079e565b80156102fe5780601f106102d3576101008083540402835291602001916102fe565b820191906000526020600020905b8154815290600101906020018083116102e157829003601f168201915b5050505050908060020180546103139061079e565b80601f016020809104026020016040519081016040528092919081815260200182805461033f9061079e565b801561038c5780601f106103615761010080835404028352916020019161038c565b820191906000526020600020905b81548152906001019060200180831161036f57829003601f168201915b5050505050908060030154905084565b600260405180608001604052808581526020018481526020018381526020016000815250908060018154018082558091505060019003906000526020600020906004020160009091909190915060008201518160000155602082015181600101908051906020019061040f929190610441565b50604082015181600201908051906020019061042c929190610441565b50606082015181600301555050505050565b50565b82805461044d9061079e565b90600052602060002090601f01602090048101928261046f57600085556104b6565b82601f1061048857805160ff19168380011785556104b6565b828001600101855582156104b6579182015b828111156104b557825182559160200191906001019061049a565b5b5090506104c391906104c7565b5090565b5b808211156104e05760008160009055506001016104c8565b5090565b60006104f76104f284610705565b6106e0565b90508281526020810184848401111561050f57600080fd5b61051a84828561075c565b509392505050565b600082601f83011261053357600080fd5b81356105438482602086016104e4565b91505092915050565b60008135905061055b81610870565b92915050565b60006020828403121561057357600080fd5b60006105818482850161054c565b91505092915050565b60008060006060848603121561059f57600080fd5b60006105ad8682870161054c565b935050602084013567ffffffffffffffff8111156105ca57600080fd5b6105d686828701610522565b925050604084013567ffffffffffffffff8111156105f357600080fd5b6105ff86828701610522565b9150509250925092565b6000806040838503121561061c57600080fd5b600061062a8582860161054c565b925050602061063b8582860161054c565b9150509250929050565b600061065082610736565b61065a8185610741565b935061066a81856020860161076b565b6106738161085f565b840191505092915050565b61068781610752565b82525050565b60006080820190506106a2600083018761067e565b81810360208301526106b48186610645565b905081810360408301526106c88185610645565b90506106d7606083018461067e565b95945050505050565b60006106ea6106fb565b90506106f682826107d0565b919050565b6000604051905090565b600067ffffffffffffffff8211156107205761071f610830565b5b6107298261085f565b9050602081019050919050565b600081519050919050565b600082825260208201905092915050565b6000819050919050565b82818337600083830152505050565b60005b8381101561078957808201518184015260208101905061076e565b83811115610798576000848401525b50505050565b600060028204905060018216806107b657607f821691505b602082108114156107ca576107c9610801565b5b50919050565b6107d98261085f565b810181811067ffffffffffffffff821117156107f8576107f7610830565b5b80604052505050565b7f4e487b7100000000000000000000000000000000000000000000000000000000600052602260045260246000fd5b7f4e487b7100000000000000000000000000000000000000000000000000000000600052604160045260246000fd5b6000601f19601f8301169050919050565b61087981610752565b811461088457600080fd5b5056fea26469706673582212202a06600f53048657e7b6259eacafd42086fb216070aec7f0f84ab750c5ec4d1564736f6c63430008010033",
  "immutableReferences": {},
  "source": "// SPDX-License-Identifier: MIT\npragma solidity ^0.8.0;\n\nimport \"./interfaces/IERC20.sol\";\nimport \"./interfaces/IOrchadDAO.sol\";\n\nimport {SafeMath} from \"./utils/SafeMath.sol\";\n\ncontract OrchardFunctionality {\n    IERC20 tokenAddress;\n    IOrchadDAO orchardDAO;\n\n    struct post {\n        uint256 orchardId;\n        string link;\n        string description;\n        uint256 likes;\n    }\n\n    post[] public posts;\n\n    mapping(uint256 => post[]) public orchardsPosts;\n\n    constructor(IERC20 _tokenAddress, IOrchadDAO _orchardDAO) {\n        tokenAddress = _tokenAddress;\n        orchardDAO = _orchardDAO;\n    }\n\n    function updateOrchardHarvest(uint256 orchardId) public {\n\n    }\n\n    function addPostsOnOrchard(uint256 orchardID, string memory link, string memory description) public {\n        posts.push(\n            post(\n                orchardID,\n                link,\n                description,\n                0\n            )\n        );\n    }\n}",
  "sourcePath": "/Users/sagarbehara/Work/sides/gitcoin/petgram/src/contracts/orchardsFunctionality.sol",
  "compiler": {
    "name": "solc",
    "version": "0.8.1+commit.df193b15.Emscripten.clang"
  },
  "schemaVersion": "3.4.1",
  "updatedAt": "2022-07-17T21:39:18.591Z",
  "networkType": "ethereum",
  "devdoc": {
    "kind": "dev",
    "methods": {},
    "version": 1
  },
  "userdoc": {
    "kind": "user",
    "methods": {},
    "version": 1
  }
}