{
  "contractName": "OrchardDAO",
  "abi": [
    {
      "inputs": [
        {
          "internalType": "contract IERC20",
          "name": "tokenAddress",
          "type": "address"
        }
      ],
      "stateMutability": "nonpayable",
      "type": "constructor"
    },
    {
      "anonymous": false,
      "inputs": [
        {
          "indexed": true,
          "internalType": "address",
          "name": "owner",
          "type": "address"
        },
        {
          "indexed": true,
          "internalType": "address",
          "name": "approved",
          "type": "address"
        },
        {
          "indexed": true,
          "internalType": "uint256",
          "name": "tokenId",
          "type": "uint256"
        }
      ],
      "name": "Approval",
      "type": "event"
    },
    {
      "anonymous": false,
      "inputs": [
        {
          "indexed": true,
          "internalType": "address",
          "name": "owner",
          "type": "address"
        },
        {
          "indexed": true,
          "internalType": "address",
          "name": "operator",
          "type": "address"
        },
        {
          "indexed": false,
          "internalType": "bool",
          "name": "approved",
          "type": "bool"
        }
      ],
      "name": "ApprovalForAll",
      "type": "event"
    },
    {
      "anonymous": false,
      "inputs": [
        {
          "indexed": true,
          "internalType": "address",
          "name": "from",
          "type": "address"
        },
        {
          "indexed": true,
          "internalType": "address",
          "name": "to",
          "type": "address"
        },
        {
          "indexed": true,
          "internalType": "uint256",
          "name": "tokenId",
          "type": "uint256"
        }
      ],
      "name": "Transfer",
      "type": "event"
    },
    {
      "inputs": [
        {
          "internalType": "address",
          "name": "to",
          "type": "address"
        },
        {
          "internalType": "uint256",
          "name": "tokenId",
          "type": "uint256"
        }
      ],
      "name": "approve",
      "outputs": [],
      "stateMutability": "nonpayable",
      "type": "function"
    },
    {
      "inputs": [
        {
          "internalType": "address",
          "name": "owner",
          "type": "address"
        }
      ],
      "name": "balanceOf",
      "outputs": [
        {
          "internalType": "uint256",
          "name": "",
          "type": "uint256"
        }
      ],
      "stateMutability": "view",
      "type": "function",
      "constant": true
    },
    {
      "inputs": [
        {
          "internalType": "uint256",
          "name": "",
          "type": "uint256"
        }
      ],
      "name": "donationsLedger",
      "outputs": [
        {
          "internalType": "uint256",
          "name": "orchardId",
          "type": "uint256"
        },
        {
          "internalType": "address payable",
          "name": "sender",
          "type": "address"
        },
        {
          "internalType": "uint256",
          "name": "amount",
          "type": "uint256"
        }
      ],
      "stateMutability": "view",
      "type": "function",
      "constant": true
    },
    {
      "inputs": [
        {
          "internalType": "uint256",
          "name": "tokenId",
          "type": "uint256"
        }
      ],
      "name": "getApproved",
      "outputs": [
        {
          "internalType": "address",
          "name": "",
          "type": "address"
        }
      ],
      "stateMutability": "view",
      "type": "function",
      "constant": true
    },
    {
      "inputs": [
        {
          "internalType": "address",
          "name": "owner",
          "type": "address"
        },
        {
          "internalType": "address",
          "name": "operator",
          "type": "address"
        }
      ],
      "name": "isApprovedForAll",
      "outputs": [
        {
          "internalType": "bool",
          "name": "",
          "type": "bool"
        }
      ],
      "stateMutability": "view",
      "type": "function",
      "constant": true
    },
    {
      "inputs": [],
      "name": "minimumStake",
      "outputs": [
        {
          "internalType": "uint256",
          "name": "",
          "type": "uint256"
        }
      ],
      "stateMutability": "view",
      "type": "function",
      "constant": true
    },
    {
      "inputs": [],
      "name": "name",
      "outputs": [
        {
          "internalType": "string",
          "name": "",
          "type": "string"
        }
      ],
      "stateMutability": "view",
      "type": "function",
      "constant": true
    },
    {
      "inputs": [
        {
          "internalType": "uint256",
          "name": "",
          "type": "uint256"
        },
        {
          "internalType": "uint256",
          "name": "",
          "type": "uint256"
        }
      ],
      "name": "orchardsAllDonations",
      "outputs": [
        {
          "internalType": "uint256",
          "name": "orchardId",
          "type": "uint256"
        },
        {
          "internalType": "address payable",
          "name": "sender",
          "type": "address"
        },
        {
          "internalType": "uint256",
          "name": "amount",
          "type": "uint256"
        }
      ],
      "stateMutability": "view",
      "type": "function",
      "constant": true
    },
    {
      "inputs": [],
      "name": "orchardsCount",
      "outputs": [
        {
          "internalType": "uint256",
          "name": "",
          "type": "uint256"
        }
      ],
      "stateMutability": "view",
      "type": "function",
      "constant": true
    },
    {
      "inputs": [
        {
          "internalType": "uint256",
          "name": "tokenId",
          "type": "uint256"
        }
      ],
      "name": "ownerOf",
      "outputs": [
        {
          "internalType": "address",
          "name": "",
          "type": "address"
        }
      ],
      "stateMutability": "view",
      "type": "function",
      "constant": true
    },
    {
      "inputs": [
        {
          "internalType": "uint256",
          "name": "",
          "type": "uint256"
        }
      ],
      "name": "proposals",
      "outputs": [
        {
          "internalType": "uint256",
          "name": "orchardId",
          "type": "uint256"
        },
        {
          "internalType": "string",
          "name": "name",
          "type": "string"
        },
        {
          "internalType": "string",
          "name": "link",
          "type": "string"
        },
        {
          "internalType": "string",
          "name": "country",
          "type": "string"
        },
        {
          "internalType": "string",
          "name": "farm",
          "type": "string"
        },
        {
          "internalType": "uint256",
          "name": "areaSize",
          "type": "uint256"
        },
        {
          "internalType": "bool",
          "name": "accepted",
          "type": "bool"
        },
        {
          "internalType": "bool",
          "name": "stakesAccumulated",
          "type": "bool"
        },
        {
          "internalType": "uint256",
          "name": "stakesGathered",
          "type": "uint256"
        },
        {
          "internalType": "address payable",
          "name": "orchardAddress",
          "type": "address"
        }
      ],
      "stateMutability": "view",
      "type": "function",
      "constant": true
    },
    {
      "inputs": [
        {
          "internalType": "address",
          "name": "from",
          "type": "address"
        },
        {
          "internalType": "address",
          "name": "to",
          "type": "address"
        },
        {
          "internalType": "uint256",
          "name": "tokenId",
          "type": "uint256"
        }
      ],
      "name": "safeTransferFrom",
      "outputs": [],
      "stateMutability": "nonpayable",
      "type": "function"
    },
    {
      "inputs": [
        {
          "internalType": "address",
          "name": "from",
          "type": "address"
        },
        {
          "internalType": "address",
          "name": "to",
          "type": "address"
        },
        {
          "internalType": "uint256",
          "name": "tokenId",
          "type": "uint256"
        },
        {
          "internalType": "bytes",
          "name": "data",
          "type": "bytes"
        }
      ],
      "name": "safeTransferFrom",
      "outputs": [],
      "stateMutability": "nonpayable",
      "type": "function"
    },
    {
      "inputs": [
        {
          "internalType": "address",
          "name": "operator",
          "type": "address"
        },
        {
          "internalType": "bool",
          "name": "approved",
          "type": "bool"
        }
      ],
      "name": "setApprovalForAll",
      "outputs": [],
      "stateMutability": "nonpayable",
      "type": "function"
    },
    {
      "inputs": [
        {
          "internalType": "bytes4",
          "name": "interfaceId",
          "type": "bytes4"
        }
      ],
      "name": "supportsInterface",
      "outputs": [
        {
          "internalType": "bool",
          "name": "",
          "type": "bool"
        }
      ],
      "stateMutability": "view",
      "type": "function",
      "constant": true
    },
    {
      "inputs": [],
      "name": "symbol",
      "outputs": [
        {
          "internalType": "string",
          "name": "",
          "type": "string"
        }
      ],
      "stateMutability": "view",
      "type": "function",
      "constant": true
    },
    {
      "inputs": [],
      "name": "tokenId",
      "outputs": [
        {
          "internalType": "uint256",
          "name": "",
          "type": "uint256"
        }
      ],
      "stateMutability": "view",
      "type": "function",
      "constant": true
    },
    {
      "inputs": [
        {
          "internalType": "uint256",
          "name": "tokenId",
          "type": "uint256"
        }
      ],
      "name": "tokenURI",
      "outputs": [
        {
          "internalType": "string",
          "name": "",
          "type": "string"
        }
      ],
      "stateMutability": "view",
      "type": "function",
      "constant": true
    },
    {
      "inputs": [
        {
          "internalType": "address",
          "name": "from",
          "type": "address"
        },
        {
          "internalType": "address",
          "name": "to",
          "type": "address"
        },
        {
          "internalType": "uint256",
          "name": "tokenId",
          "type": "uint256"
        }
      ],
      "name": "transferFrom",
      "outputs": [],
      "stateMutability": "nonpayable",
      "type": "function"
    },
    {
      "inputs": [
        {
          "internalType": "uint256",
          "name": "",
          "type": "uint256"
        },
        {
          "internalType": "address",
          "name": "",
          "type": "address"
        }
      ],
      "name": "userDonations",
      "outputs": [
        {
          "internalType": "uint256",
          "name": "orchardId",
          "type": "uint256"
        },
        {
          "internalType": "address payable",
          "name": "sender",
          "type": "address"
        },
        {
          "internalType": "uint256",
          "name": "amount",
          "type": "uint256"
        }
      ],
      "stateMutability": "view",
      "type": "function",
      "constant": true
    },
    {
      "inputs": [
        {
          "internalType": "string",
          "name": "name",
          "type": "string"
        },
        {
          "internalType": "string",
          "name": "link",
          "type": "string"
        },
        {
          "internalType": "string",
          "name": "country",
          "type": "string"
        },
        {
          "internalType": "string",
          "name": "farm",
          "type": "string"
        },
        {
          "internalType": "uint256",
          "name": "areaSize",
          "type": "uint256"
        },
        {
          "internalType": "address payable",
          "name": "orchardAddress",
          "type": "address"
        }
      ],
      "name": "orchardProposal",
      "outputs": [],
      "stateMutability": "nonpayable",
      "type": "function"
    },
    {
      "inputs": [
        {
          "internalType": "uint256",
          "name": "proposalId",
          "type": "uint256"
        },
        {
          "internalType": "uint256",
          "name": "amount",
          "type": "uint256"
        }
      ],
      "name": "delagateStake",
      "outputs": [],
      "stateMutability": "nonpayable",
      "type": "function"
    },
    {
      "inputs": [
        {
          "internalType": "uint256",
          "name": "proposalId",
          "type": "uint256"
        }
      ],
      "name": "getProposal",
      "outputs": [
        {
          "components": [
            {
              "internalType": "uint256",
              "name": "orchardId",
              "type": "uint256"
            },
            {
              "internalType": "string",
              "name": "name",
              "type": "string"
            },
            {
              "internalType": "string",
              "name": "link",
              "type": "string"
            },
            {
              "internalType": "string",
              "name": "country",
              "type": "string"
            },
            {
              "internalType": "string",
              "name": "farm",
              "type": "string"
            },
            {
              "internalType": "uint256",
              "name": "areaSize",
              "type": "uint256"
            },
            {
              "internalType": "bool",
              "name": "accepted",
              "type": "bool"
            },
            {
              "internalType": "bool",
              "name": "stakesAccumulated",
              "type": "bool"
            },
            {
              "internalType": "uint256",
              "name": "stakesGathered",
              "type": "uint256"
            },
            {
              "internalType": "address payable",
              "name": "orchardAddress",
              "type": "address"
            }
          ],
          "internalType": "struct OrchardDAO.orchards",
          "name": "",
          "type": "tuple"
        }
      ],
      "stateMutability": "view",
      "type": "function",
      "constant": true
    },
    {
      "inputs": [
        {
          "internalType": "uint256",
          "name": "orchardId",
          "type": "uint256"
        }
      ],
      "name": "getOrchardDonation",
      "outputs": [
        {
          "components": [
            {
              "internalType": "uint256",
              "name": "orchardId",
              "type": "uint256"
            },
            {
              "internalType": "address payable",
              "name": "sender",
              "type": "address"
            },
            {
              "internalType": "uint256",
              "name": "amount",
              "type": "uint256"
            }
          ],
          "internalType": "struct OrchardDAO.orchardDonation[]",
          "name": "",
          "type": "tuple[]"
        }
      ],
      "stateMutability": "view",
      "type": "function",
      "constant": true
    },
    {
      "inputs": [
        {
          "internalType": "uint256",
          "name": "orchardId",
          "type": "uint256"
        },
        {
          "internalType": "uint256",
          "name": "amount",
          "type": "uint256"
        }
      ],
      "name": "donateToOrchard",
      "outputs": [],
      "stateMutability": "payable",
      "type": "function",
      "payable": true
    }
  ],
  "bytecode": "0x60806040523480156200001157600080fd5b5060405162004b3b38038062004b3b8339818101604052810190620000379190620001fd565b6040518060400160405280600a81526020017f54726f70687943686172000000000000000000000000000000000000000000008152506040518060400160405280600381526020017f54525000000000000000000000000000000000000000000000000000000000008152508160009080519060200190620000bb92919062000136565b508060019080519060200190620000d492919062000136565b5050506000600781905550678ac7230489e8000060098190555080600a60006101000a81548173ffffffffffffffffffffffffffffffffffffffff021916908373ffffffffffffffffffffffffffffffffffffffff16021790555050620002f0565b828054620001449062000271565b90600052602060002090601f016020900481019282620001685760008555620001b4565b82601f106200018357805160ff1916838001178555620001b4565b82800160010185558215620001b4579182015b82811115620001b357825182559160200191906001019062000196565b5b509050620001c39190620001c7565b5090565b5b80821115620001e2576000816000905550600101620001c8565b5090565b600081519050620001f781620002d6565b92915050565b6000602082840312156200021057600080fd5b60006200022084828501620001e6565b91505092915050565b6000620002368262000251565b9050919050565b60006200024a8262000229565b9050919050565b600073ffffffffffffffffffffffffffffffffffffffff82169050919050565b600060028204905060018216806200028a57607f821691505b60208210811415620002a157620002a0620002a7565b5b50919050565b7f4e487b7100000000000000000000000000000000000000000000000000000000600052602260045260246000fd5b620002e1816200023d565b8114620002ed57600080fd5b50565b61483b80620003006000396000f3fe6080604052600436106101665760003560e01c80636352211e116100d1578063c7f758a81161008a578063e985e9c511610064578063e985e9c514610598578063ec5ffac2146105d5578063f119d4aa14610600578063fab933cd1461063f57610166565b8063c7f758a8146104f3578063c87b56dd14610530578063e655d9121461056d57610166565b80636352211e146103bd57806370a08231146103fa5780637a5b44cc1461043757806395d89b4114610476578063a22cb465146104a1578063b88d4fde146104ca57610166565b806317d70f7c1161012357806317d70f7c146102bc57806323b872dd146102e7578063261045c71461031057806342842e0e1461034f57806354df19d11461037857806357637a881461039457610166565b80630138091b1461016b578063013cf08b146101a857806301ffc9a7146101ee57806306fdde031461022b578063081812fc14610256578063095ea7b314610293575b600080fd5b34801561017757600080fd5b50610192600480360381019061018d91906136f1565b610668565b60405161019f9190613d07565b60405180910390f35b3480156101b457600080fd5b506101cf60048036038101906101ca91906136f1565b610744565b6040516101e59a99989796959493929190613f7a565b60405180910390f35b3480156101fa57600080fd5b50610215600480360381019061021091906135b6565b6109f2565b6040516102229190613d29565b60405180910390f35b34801561023757600080fd5b50610240610ad4565b60405161024d9190613d44565b60405180910390f35b34801561026257600080fd5b5061027d600480360381019061027891906136f1565b610b66565b60405161028a9190613c69565b60405180910390f35b34801561029f57600080fd5b506102ba60048036038101906102b59190613551565b610bac565b005b3480156102c857600080fd5b506102d1610cc4565b6040516102de9190613f28565b60405180910390f35b3480156102f357600080fd5b5061030e6004803603810190610309919061344b565b610cca565b005b34801561031c57600080fd5b50610337600480360381019061033291906136f1565b610d2a565b60405161034693929190613f43565b60405180910390f35b34801561035b57600080fd5b506103766004803603810190610371919061344b565b610d84565b005b610392600480360381019061038d9190613756565b610da4565b005b3480156103a057600080fd5b506103bb60048036038101906103b69190613756565b6113ff565b005b3480156103c957600080fd5b506103e460048036038101906103df91906136f1565b61198d565b6040516103f19190613c69565b60405180910390f35b34801561040657600080fd5b50610421600480360381019061041c91906133e6565b611a3f565b60405161042e9190613f28565b60405180910390f35b34801561044357600080fd5b5061045e6004803603810190610459919061371a565b611af7565b60405161046d93929190613f43565b60405180910390f35b34801561048257600080fd5b5061048b611b4e565b6040516104989190613d44565b60405180910390f35b3480156104ad57600080fd5b506104c860048036038101906104c39190613515565b611be0565b005b3480156104d657600080fd5b506104f160048036038101906104ec919061349a565b611bf6565b005b3480156104ff57600080fd5b5061051a600480360381019061051591906136f1565b611c58565b6040516105279190613f06565b60405180910390f35b34801561053c57600080fd5b50610557600480360381019061055291906136f1565b611f78565b6040516105649190613d44565b60405180910390f35b34801561057957600080fd5b5061058261208b565b60405161058f9190613f28565b60405180910390f35b3480156105a457600080fd5b506105bf60048036038101906105ba919061340f565b612091565b6040516105cc9190613d29565b60405180910390f35b3480156105e157600080fd5b506105ea612125565b6040516105f79190613f28565b60405180910390f35b34801561060c57600080fd5b5061062760048036038101906106229190613756565b61212b565b60405161063693929190613f43565b60405180910390f35b34801561064b57600080fd5b5061066660048036038101906106619190613608565b612192565b005b6060600e6000838152602001908152602001600020805480602002602001604051908101604052809291908181526020016000905b828210156107395783829060005260206000209060030201604051806060016040529081600082015481526020016001820160009054906101000a900473ffffffffffffffffffffffffffffffffffffffff1673ffffffffffffffffffffffffffffffffffffffff1673ffffffffffffffffffffffffffffffffffffffff1681526020016002820154815250508152602001906001019061069d565b505050509050919050565b600c60205280600052604060002060009150905080600001549080600101805461076d906142c9565b80601f0160208091040260200160405190810160405280929190818152602001828054610799906142c9565b80156107e65780601f106107bb576101008083540402835291602001916107e6565b820191906000526020600020905b8154815290600101906020018083116107c957829003601f168201915b5050505050908060020180546107fb906142c9565b80601f0160208091040260200160405190810160405280929190818152602001828054610827906142c9565b80156108745780601f1061084957610100808354040283529160200191610874565b820191906000526020600020905b81548152906001019060200180831161085757829003601f168201915b505050505090806003018054610889906142c9565b80601f01602080910402602001604051908101604052809291908181526020018280546108b5906142c9565b80156109025780601f106108d757610100808354040283529160200191610902565b820191906000526020600020905b8154815290600101906020018083116108e557829003601f168201915b505050505090806004018054610917906142c9565b80601f0160208091040260200160405190810160405280929190818152602001828054610943906142c9565b80156109905780601f1061096557610100808354040283529160200191610990565b820191906000526020600020905b81548152906001019060200180831161097357829003601f168201915b5050505050908060050154908060060160009054906101000a900460ff16908060060160019054906101000a900460ff16908060070154908060080160009054906101000a900473ffffffffffffffffffffffffffffffffffffffff1690508a565b60007f80ac58cd000000000000000000000000000000000000000000000000000000007bffffffffffffffffffffffffffffffffffffffffffffffffffffffff1916827bffffffffffffffffffffffffffffffffffffffffffffffffffffffff19161480610abd57507f5b5e139f000000000000000000000000000000000000000000000000000000007bffffffffffffffffffffffffffffffffffffffffffffffffffffffff1916827bffffffffffffffffffffffffffffffffffffffffffffffffffffffff1916145b80610acd5750610acc82612368565b5b9050919050565b606060008054610ae3906142c9565b80601f0160208091040260200160405190810160405280929190818152602001828054610b0f906142c9565b8015610b5c5780601f10610b3157610100808354040283529160200191610b5c565b820191906000526020600020905b815481529060010190602001808311610b3f57829003601f168201915b5050505050905090565b6000610b71826123d2565b6004600083815260200190815260200160002060009054906101000a900473ffffffffffffffffffffffffffffffffffffffff169050919050565b6000610bb78261198d565b90508073ffffffffffffffffffffffffffffffffffffffff168373ffffffffffffffffffffffffffffffffffffffff161415610c28576040517f08c379a0000000000000000000000000000000000000000000000000000000008152600401610c1f90613ec6565b60405180910390fd5b8073ffffffffffffffffffffffffffffffffffffffff16610c4761241d565b73ffffffffffffffffffffffffffffffffffffffff161480610c765750610c7581610c7061241d565b612091565b5b610cb5576040517f08c379a0000000000000000000000000000000000000000000000000000000008152600401610cac90613e46565b60405180910390fd5b610cbf8383612425565b505050565b60085481565b610cdb610cd561241d565b826124de565b610d1a576040517f08c379a0000000000000000000000000000000000000000000000000000000008152600401610d1190613ee6565b60405180910390fd5b610d25838383612573565b505050565b600b8181548110610d3a57600080fd5b90600052602060002090600302016000915090508060000154908060010160009054906101000a900473ffffffffffffffffffffffffffffffffffffffff16908060020154905083565b610d9f83838360405180602001604052806000815250611bf6565b505050565b6000600c60008481526020019081526020016000206040518061014001604052908160008201548152602001600182018054610ddf906142c9565b80601f0160208091040260200160405190810160405280929190818152602001828054610e0b906142c9565b8015610e585780601f10610e2d57610100808354040283529160200191610e58565b820191906000526020600020905b815481529060010190602001808311610e3b57829003601f168201915b50505050508152602001600282018054610e71906142c9565b80601f0160208091040260200160405190810160405280929190818152602001828054610e9d906142c9565b8015610eea5780601f10610ebf57610100808354040283529160200191610eea565b820191906000526020600020905b815481529060010190602001808311610ecd57829003601f168201915b50505050508152602001600382018054610f03906142c9565b80601f0160208091040260200160405190810160405280929190818152602001828054610f2f906142c9565b8015610f7c5780601f10610f5157610100808354040283529160200191610f7c565b820191906000526020600020905b815481529060010190602001808311610f5f57829003601f168201915b50505050508152602001600482018054610f95906142c9565b80601f0160208091040260200160405190810160405280929190818152602001828054610fc1906142c9565b801561100e5780601f10610fe35761010080835404028352916020019161100e565b820191906000526020600020905b815481529060010190602001808311610ff157829003601f168201915b50505050508152602001600582015481526020016006820160009054906101000a900460ff161515151581526020016006820160019054906101000a900460ff16151515158152602001600782015481526020016008820160009054906101000a900473ffffffffffffffffffffffffffffffffffffffff1673ffffffffffffffffffffffffffffffffffffffff1673ffffffffffffffffffffffffffffffffffffffff168152505090508060c001516110fd576040517f08c379a00000000000000000000000000000000000000000000000000000000081526004016110f490613dc6565b60405180910390fd5b6000600d600085815260200190815260200160002060003373ffffffffffffffffffffffffffffffffffffffff1673ffffffffffffffffffffffffffffffffffffffff168152602001908152602001600020604051806060016040529081600082015481526020016001820160009054906101000a900473ffffffffffffffffffffffffffffffffffffffff1673ffffffffffffffffffffffffffffffffffffffff1673ffffffffffffffffffffffffffffffffffffffff16815260200160028201548152505090508281604001516111d69190614146565b81604001818152505033816020019073ffffffffffffffffffffffffffffffffffffffff16908173ffffffffffffffffffffffffffffffffffffffff16815250508381600001818152505080600d600086815260200190815260200160002060003373ffffffffffffffffffffffffffffffffffffffff1673ffffffffffffffffffffffffffffffffffffffff1681526020019081526020016000206000820151816000015560208201518160010160006101000a81548173ffffffffffffffffffffffffffffffffffffffff021916908373ffffffffffffffffffffffffffffffffffffffff16021790555060408201518160020155905050600b60405180606001604052808681526020013373ffffffffffffffffffffffffffffffffffffffff1681526020018581525090806001815401808255809150506001900390600052602060002090600302016000909190919091506000820151816000015560208201518160010160006101000a81548173ffffffffffffffffffffffffffffffffffffffff021916908373ffffffffffffffffffffffffffffffffffffffff160217905550604082015181600201555050600b600e60008681526020019081526020016000209080546113ac929190613052565b5081610120015173ffffffffffffffffffffffffffffffffffffffff166108fc849081150290604051600060405180830381858888f193505050501580156113f8573d6000803e3d6000fd5b5050505050565b6000811415611443576040517f08c379a000000000000000000000000000000000000000000000000000000000815260040161143a90613ea6565b60405180910390fd5b600a60009054906101000a900473ffffffffffffffffffffffffffffffffffffffff1673ffffffffffffffffffffffffffffffffffffffff166323b872dd3330846040518463ffffffff1660e01b81526004016114a293929190613c84565b602060405180830381600087803b1580156114bc57600080fd5b505af11580156114d0573d6000803e3d6000fd5b505050506040513d601f19601f820116820180604052508101906114f4919061358d565b506000600c60008481526020019081526020016000206040518061014001604052908160008201548152602001600182018054611530906142c9565b80601f016020809104026020016040519081016040528092919081815260200182805461155c906142c9565b80156115a95780601f1061157e576101008083540402835291602001916115a9565b820191906000526020600020905b81548152906001019060200180831161158c57829003601f168201915b505050505081526020016002820180546115c2906142c9565b80601f01602080910402602001604051908101604052809291908181526020018280546115ee906142c9565b801561163b5780601f106116105761010080835404028352916020019161163b565b820191906000526020600020905b81548152906001019060200180831161161e57829003601f168201915b50505050508152602001600382018054611654906142c9565b80601f0160208091040260200160405190810160405280929190818152602001828054611680906142c9565b80156116cd5780601f106116a2576101008083540402835291602001916116cd565b820191906000526020600020905b8154815290600101906020018083116116b057829003601f168201915b505050505081526020016004820180546116e6906142c9565b80601f0160208091040260200160405190810160405280929190818152602001828054611712906142c9565b801561175f5780601f106117345761010080835404028352916020019161175f565b820191906000526020600020905b81548152906001019060200180831161174257829003601f168201915b50505050508152602001600582015481526020016006820160009054906101000a900460ff161515151581526020016006820160019054906101000a900460ff16151515158152602001600782015481526020016008820160009054906101000a900473ffffffffffffffffffffffffffffffffffffffff1673ffffffffffffffffffffffffffffffffffffffff1673ffffffffffffffffffffffffffffffffffffffff168152505090508181610100015161181b9190614146565b81610100018181525050600954816101000151106118565760018160e001901515908115158152505060018160c00190151590811515815250505b80600c6000858152602001908152602001600020600082015181600001556020820151816001019080519060200190611890929190613125565b5060408201518160020190805190602001906118ad929190613125565b5060608201518160030190805190602001906118ca929190613125565b5060808201518160040190805190602001906118e7929190613125565b5060a0820151816005015560c08201518160060160006101000a81548160ff02191690831515021790555060e08201518160060160016101000a81548160ff02191690831515021790555061010082015181600701556101208201518160080160006101000a81548173ffffffffffffffffffffffffffffffffffffffff021916908373ffffffffffffffffffffffffffffffffffffffff160217905550905050505050565b6000806002600084815260200190815260200160002060009054906101000a900473ffffffffffffffffffffffffffffffffffffffff169050600073ffffffffffffffffffffffffffffffffffffffff168173ffffffffffffffffffffffffffffffffffffffff161415611a36576040517f08c379a0000000000000000000000000000000000000000000000000000000008152600401611a2d90613e86565b60405180910390fd5b80915050919050565b60008073ffffffffffffffffffffffffffffffffffffffff168273ffffffffffffffffffffffffffffffffffffffff161415611ab0576040517f08c379a0000000000000000000000000000000000000000000000000000000008152600401611aa790613e26565b60405180910390fd5b600360008373ffffffffffffffffffffffffffffffffffffffff1673ffffffffffffffffffffffffffffffffffffffff168152602001908152602001600020549050919050565b600d602052816000526040600020602052806000526040600020600091509150508060000154908060010160009054906101000a900473ffffffffffffffffffffffffffffffffffffffff16908060020154905083565b606060018054611b5d906142c9565b80601f0160208091040260200160405190810160405280929190818152602001828054611b89906142c9565b8015611bd65780601f10611bab57610100808354040283529160200191611bd6565b820191906000526020600020905b815481529060010190602001808311611bb957829003601f168201915b5050505050905090565b611bf2611beb61241d565b83836127da565b5050565b611c07611c0161241d565b836124de565b611c46576040517f08c379a0000000000000000000000000000000000000000000000000000000008152600401611c3d90613ee6565b60405180910390fd5b611c5284848484612947565b50505050565b611c606131ab565b600c60008381526020019081526020016000206040518061014001604052908160008201548152602001600182018054611c99906142c9565b80601f0160208091040260200160405190810160405280929190818152602001828054611cc5906142c9565b8015611d125780601f10611ce757610100808354040283529160200191611d12565b820191906000526020600020905b815481529060010190602001808311611cf557829003601f168201915b50505050508152602001600282018054611d2b906142c9565b80601f0160208091040260200160405190810160405280929190818152602001828054611d57906142c9565b8015611da45780601f10611d7957610100808354040283529160200191611da4565b820191906000526020600020905b815481529060010190602001808311611d8757829003601f168201915b50505050508152602001600382018054611dbd906142c9565b80601f0160208091040260200160405190810160405280929190818152602001828054611de9906142c9565b8015611e365780601f10611e0b57610100808354040283529160200191611e36565b820191906000526020600020905b815481529060010190602001808311611e1957829003601f168201915b50505050508152602001600482018054611e4f906142c9565b80601f0160208091040260200160405190810160405280929190818152602001828054611e7b906142c9565b8015611ec85780601f10611e9d57610100808354040283529160200191611ec8565b820191906000526020600020905b815481529060010190602001808311611eab57829003601f168201915b50505050508152602001600582015481526020016006820160009054906101000a900460ff161515151581526020016006820160019054906101000a900460ff16151515158152602001600782015481526020016008820160009054906101000a900473ffffffffffffffffffffffffffffffffffffffff1673ffffffffffffffffffffffffffffffffffffffff1673ffffffffffffffffffffffffffffffffffffffff16815250509050919050565b6060611f83826123d2565b6000600660008481526020019081526020016000208054611fa3906142c9565b80601f0160208091040260200160405190810160405280929190818152602001828054611fcf906142c9565b801561201c5780601f10611ff15761010080835404028352916020019161201c565b820191906000526020600020905b815481529060010190602001808311611fff57829003601f168201915b50505050509050600061202d6129a3565b9050600081511415612043578192505050612086565b600082511115612078578082604051602001612060929190613c45565b60405160208183030381529060405292505050612086565b612081846129ba565b925050505b919050565b60075481565b6000600560008473ffffffffffffffffffffffffffffffffffffffff1673ffffffffffffffffffffffffffffffffffffffff16815260200190815260200160002060008373ffffffffffffffffffffffffffffffffffffffff1673ffffffffffffffffffffffffffffffffffffffff16815260200190815260200160002060009054906101000a900460ff16905092915050565b60095481565b600e602052816000526040600020818154811061214757600080fd5b9060005260206000209060030201600091509150508060000154908060010160009054906101000a900473ffffffffffffffffffffffffffffffffffffffff16908060020154905083565b60016007546121a19190614146565b60078190555060016008546121b69190614146565b6008819055506040518061014001604052806007548152602001878152602001868152602001858152602001848152602001838152602001600015158152602001600015158152602001600081526020018273ffffffffffffffffffffffffffffffffffffffff16815250600c6000600754815260200190815260200160002060008201518160000155602082015181600101908051906020019061225c929190613125565b506040820151816002019080519060200190612279929190613125565b506060820151816003019080519060200190612296929190613125565b5060808201518160040190805190602001906122b3929190613125565b5060a0820151816005015560c08201518160060160006101000a81548160ff02191690831515021790555060e08201518160060160016101000a81548160ff02191690831515021790555061010082015181600701556101208201518160080160006101000a81548173ffffffffffffffffffffffffffffffffffffffff021916908373ffffffffffffffffffffffffffffffffffffffff16021790555090505061236030600854612a22565b505050505050565b60007f01ffc9a7000000000000000000000000000000000000000000000000000000007bffffffffffffffffffffffffffffffffffffffffffffffffffffffff1916827bffffffffffffffffffffffffffffffffffffffffffffffffffffffff1916149050919050565b6123db81612a40565b61241a576040517f08c379a000000000000000000000000000000000000000000000000000000000815260040161241190613e86565b60405180910390fd5b50565b600033905090565b816004600083815260200190815260200160002060006101000a81548173ffffffffffffffffffffffffffffffffffffffff021916908373ffffffffffffffffffffffffffffffffffffffff160217905550808273ffffffffffffffffffffffffffffffffffffffff166124988361198d565b73ffffffffffffffffffffffffffffffffffffffff167f8c5be1e5ebec7d5bd14f71427d1e84f3dd0314c0f7b2291e5b200ac8c7c3b92560405160405180910390a45050565b6000806124ea8361198d565b90508073ffffffffffffffffffffffffffffffffffffffff168473ffffffffffffffffffffffffffffffffffffffff16148061252c575061252b8185612091565b5b8061256a57508373ffffffffffffffffffffffffffffffffffffffff1661255284610b66565b73ffffffffffffffffffffffffffffffffffffffff16145b91505092915050565b8273ffffffffffffffffffffffffffffffffffffffff166125938261198d565b73ffffffffffffffffffffffffffffffffffffffff16146125e9576040517f08c379a00000000000000000000000000000000000000000000000000000000081526004016125e090613d86565b60405180910390fd5b600073ffffffffffffffffffffffffffffffffffffffff168273ffffffffffffffffffffffffffffffffffffffff161415612659576040517f08c379a000000000000000000000000000000000000000000000000000000000815260040161265090613de6565b60405180910390fd5b612664838383612aac565b61266f600082612425565b6001600360008573ffffffffffffffffffffffffffffffffffffffff1673ffffffffffffffffffffffffffffffffffffffff16815260200190815260200160002060008282546126bf91906141cd565b925050819055506001600360008473ffffffffffffffffffffffffffffffffffffffff1673ffffffffffffffffffffffffffffffffffffffff16815260200190815260200160002060008282546127169190614146565b92505081905550816002600083815260200190815260200160002060006101000a81548173ffffffffffffffffffffffffffffffffffffffff021916908373ffffffffffffffffffffffffffffffffffffffff160217905550808273ffffffffffffffffffffffffffffffffffffffff168473ffffffffffffffffffffffffffffffffffffffff167fddf252ad1be2c89b69c2b068fc378daa952ba7f163c4a11628f55a4df523b3ef60405160405180910390a46127d5838383612ab1565b505050565b8173ffffffffffffffffffffffffffffffffffffffff168373ffffffffffffffffffffffffffffffffffffffff161415612849576040517f08c379a000000000000000000000000000000000000000000000000000000000815260040161284090613e06565b60405180910390fd5b80600560008573ffffffffffffffffffffffffffffffffffffffff1673ffffffffffffffffffffffffffffffffffffffff16815260200190815260200160002060008473ffffffffffffffffffffffffffffffffffffffff1673ffffffffffffffffffffffffffffffffffffffff16815260200190815260200160002060006101000a81548160ff0219169083151502179055508173ffffffffffffffffffffffffffffffffffffffff168373ffffffffffffffffffffffffffffffffffffffff167f17307eab39ab6107e8899845ad3d59bd9653f200f220920489ca2b5937696c318360405161293a9190613d29565b60405180910390a3505050565b612952848484612573565b61295e84848484612ab6565b61299d576040517f08c379a000000000000000000000000000000000000000000000000000000000815260040161299490613d66565b60405180910390fd5b50505050565b606060405180602001604052806000815250905090565b60606129c5826123d2565b60006129cf6129a3565b905060008151116129ef5760405180602001604052806000815250612a1a565b806129f984612c4d565b604051602001612a0a929190613c45565b6040516020818303038152906040525b915050919050565b612a3c828260405180602001604052806000815250612dfa565b5050565b60008073ffffffffffffffffffffffffffffffffffffffff166002600084815260200190815260200160002060009054906101000a900473ffffffffffffffffffffffffffffffffffffffff1673ffffffffffffffffffffffffffffffffffffffff1614159050919050565b505050565b505050565b6000612ad78473ffffffffffffffffffffffffffffffffffffffff16612e55565b15612c40578373ffffffffffffffffffffffffffffffffffffffff1663150b7a02612b0061241d565b8786866040518563ffffffff1660e01b8152600401612b229493929190613cbb565b602060405180830381600087803b158015612b3c57600080fd5b505af1925050508015612b6d57506040513d601f19601f82011682018060405250810190612b6a91906135df565b60015b612bf0573d8060008114612b9d576040519150601f19603f3d011682016040523d82523d6000602084013e612ba2565b606091505b50600081511415612be8576040517f08c379a0000000000000000000000000000000000000000000000000000000008152600401612bdf90613d66565b60405180910390fd5b805181602001fd5b63150b7a0260e01b7bffffffffffffffffffffffffffffffffffffffffffffffffffffffff1916817bffffffffffffffffffffffffffffffffffffffffffffffffffffffff191614915050612c45565b600190505b949350505050565b60606000821415612c95576040518060400160405280600181526020017f30000000000000000000000000000000000000000000000000000000000000008152509050612df5565b600082905060005b60008214612cc7578080612cb09061432c565b915050600a82612cc0919061419c565b9150612c9d565b60008167ffffffffffffffff811115612d09577f4e487b7100000000000000000000000000000000000000000000000000000000600052604160045260246000fd5b6040519080825280601f01601f191660200182016040528015612d3b5781602001600182028036833780820191505090505b5090505b60008514612dee57600182612d5491906141cd565b9150600a85612d639190614375565b6030612d6f9190614146565b60f81b818381518110612dab577f4e487b7100000000000000000000000000000000000000000000000000000000600052603260045260246000fd5b60200101907effffffffffffffffffffffffffffffffffffffffffffffffffffffffffffff1916908160001a905350600a85612de7919061419c565b9450612d3f565b8093505050505b919050565b612e048383612e78565b612e116000848484612ab6565b612e50576040517f08c379a0000000000000000000000000000000000000000000000000000000008152600401612e4790613d66565b60405180910390fd5b505050565b6000808273ffffffffffffffffffffffffffffffffffffffff163b119050919050565b600073ffffffffffffffffffffffffffffffffffffffff168273ffffffffffffffffffffffffffffffffffffffff161415612ee8576040517f08c379a0000000000000000000000000000000000000000000000000000000008152600401612edf90613e66565b60405180910390fd5b612ef181612a40565b15612f31576040517f08c379a0000000000000000000000000000000000000000000000000000000008152600401612f2890613da6565b60405180910390fd5b612f3d60008383612aac565b6001600360008473ffffffffffffffffffffffffffffffffffffffff1673ffffffffffffffffffffffffffffffffffffffff1681526020019081526020016000206000828254612f8d9190614146565b92505081905550816002600083815260200190815260200160002060006101000a81548173ffffffffffffffffffffffffffffffffffffffff021916908373ffffffffffffffffffffffffffffffffffffffff160217905550808273ffffffffffffffffffffffffffffffffffffffff16600073ffffffffffffffffffffffffffffffffffffffff167fddf252ad1be2c89b69c2b068fc378daa952ba7f163c4a11628f55a4df523b3ef60405160405180910390a461304e60008383612ab1565b5050565b8280548282559060005260206000209060030281019282156131145760005260206000209160030282015b82811115613113578282600082015481600001556001820160009054906101000a900473ffffffffffffffffffffffffffffffffffffffff168160010160006101000a81548173ffffffffffffffffffffffffffffffffffffffff021916908373ffffffffffffffffffffffffffffffffffffffff1602179055506002820154816002015550509160030191906003019061307d565b5b5090506131219190613218565b5090565b828054613131906142c9565b90600052602060002090601f016020900481019282613153576000855561319a565b82601f1061316c57805160ff191683800117855561319a565b8280016001018555821561319a579182015b8281111561319957825182559160200191906001019061317e565b5b5090506131a79190613266565b5090565b60405180610140016040528060008152602001606081526020016060815260200160608152602001606081526020016000815260200160001515815260200160001515815260200160008152602001600073ffffffffffffffffffffffffffffffffffffffff1681525090565b5b80821115613262576000808201600090556001820160006101000a81549073ffffffffffffffffffffffffffffffffffffffff0219169055600282016000905550600301613219565b5090565b5b8082111561327f576000816000905550600101613267565b5090565b600061329661329184614057565b614032565b9050828152602081018484840111156132ae57600080fd5b6132b9848285614287565b509392505050565b60006132d46132cf84614088565b614032565b9050828152602081018484840111156132ec57600080fd5b6132f7848285614287565b509392505050565b60008135905061330e81614792565b92915050565b600081359050613323816147a9565b92915050565b600081359050613338816147c0565b92915050565b60008151905061334d816147c0565b92915050565b600081359050613362816147d7565b92915050565b600081519050613377816147d7565b92915050565b600082601f83011261338e57600080fd5b813561339e848260208601613283565b91505092915050565b600082601f8301126133b857600080fd5b81356133c88482602086016132c1565b91505092915050565b6000813590506133e0816147ee565b92915050565b6000602082840312156133f857600080fd5b6000613406848285016132ff565b91505092915050565b6000806040838503121561342257600080fd5b6000613430858286016132ff565b9250506020613441858286016132ff565b9150509250929050565b60008060006060848603121561346057600080fd5b600061346e868287016132ff565b935050602061347f868287016132ff565b9250506040613490868287016133d1565b9150509250925092565b600080600080608085870312156134b057600080fd5b60006134be878288016132ff565b94505060206134cf878288016132ff565b93505060406134e0878288016133d1565b925050606085013567ffffffffffffffff8111156134fd57600080fd5b6135098782880161337d565b91505092959194509250565b6000806040838503121561352857600080fd5b6000613536858286016132ff565b925050602061354785828601613329565b9150509250929050565b6000806040838503121561356457600080fd5b6000613572858286016132ff565b9250506020613583858286016133d1565b9150509250929050565b60006020828403121561359f57600080fd5b60006135ad8482850161333e565b91505092915050565b6000602082840312156135c857600080fd5b60006135d684828501613353565b91505092915050565b6000602082840312156135f157600080fd5b60006135ff84828501613368565b91505092915050565b60008060008060008060c0878903121561362157600080fd5b600087013567ffffffffffffffff81111561363b57600080fd5b61364789828a016133a7565b965050602087013567ffffffffffffffff81111561366457600080fd5b61367089828a016133a7565b955050604087013567ffffffffffffffff81111561368d57600080fd5b61369989828a016133a7565b945050606087013567ffffffffffffffff8111156136b657600080fd5b6136c289828a016133a7565b93505060806136d389828a016133d1565b92505060a06136e489828a01613314565b9150509295509295509295565b60006020828403121561370357600080fd5b6000613711848285016133d1565b91505092915050565b6000806040838503121561372d57600080fd5b600061373b858286016133d1565b925050602061374c858286016132ff565b9150509250929050565b6000806040838503121561376957600080fd5b6000613777858286016133d1565b9250506020613788858286016133d1565b9150509250929050565b600061379e8383613af6565b60608301905092915050565b6137b381614213565b82525050565b6137c281614213565b82525050565b6137d181614201565b82525050565b60006137e2826140c9565b6137ec81856140f7565b93506137f7836140b9565b8060005b8381101561382857815161380f8882613792565b975061381a836140ea565b9250506001810190506137fb565b5085935050505092915050565b61383e81614225565b82525050565b61384d81614225565b82525050565b600061385e826140d4565b6138688185614108565b9350613878818560208601614296565b61388181614462565b840191505092915050565b6000613897826140df565b6138a18185614119565b93506138b1818560208601614296565b6138ba81614462565b840191505092915050565b60006138d0826140df565b6138da818561412a565b93506138ea818560208601614296565b6138f381614462565b840191505092915050565b6000613909826140df565b613913818561413b565b9350613923818560208601614296565b80840191505092915050565b600061393c60328361412a565b915061394782614473565b604082019050919050565b600061395f60258361412a565b915061396a826144c2565b604082019050919050565b6000613982601c8361412a565b915061398d82614511565b602082019050919050565b60006139a5601b8361412a565b91506139b08261453a565b602082019050919050565b60006139c860248361412a565b91506139d382614563565b604082019050919050565b60006139eb60198361412a565b91506139f6826145b2565b602082019050919050565b6000613a0e60298361412a565b9150613a19826145db565b604082019050919050565b6000613a31603e8361412a565b9150613a3c8261462a565b604082019050919050565b6000613a5460208361412a565b9150613a5f82614679565b602082019050919050565b6000613a7760188361412a565b9150613a82826146a2565b602082019050919050565b6000613a9a60188361412a565b9150613aa5826146cb565b602082019050919050565b6000613abd60218361412a565b9150613ac8826146f4565b604082019050919050565b6000613ae0602e8361412a565b9150613aeb82614743565b604082019050919050565b606082016000820151613b0c6000850182613c27565b506020820151613b1f60208501826137aa565b506040820151613b326040850182613c27565b50505050565b600061014083016000830151613b516000860182613c27565b5060208301518482036020860152613b69828261388c565b91505060408301518482036040860152613b83828261388c565b91505060608301518482036060860152613b9d828261388c565b91505060808301518482036080860152613bb7828261388c565b91505060a0830151613bcc60a0860182613c27565b5060c0830151613bdf60c0860182613835565b5060e0830151613bf260e0860182613835565b50610100830151613c07610100860182613c27565b50610120830151613c1c6101208601826137aa565b508091505092915050565b613c308161427d565b82525050565b613c3f8161427d565b82525050565b6000613c5182856138fe565b9150613c5d82846138fe565b91508190509392505050565b6000602082019050613c7e60008301846137c8565b92915050565b6000606082019050613c9960008301866137c8565b613ca660208301856137c8565b613cb36040830184613c36565b949350505050565b6000608082019050613cd060008301876137c8565b613cdd60208301866137c8565b613cea6040830185613c36565b8181036060830152613cfc8184613853565b905095945050505050565b60006020820190508181036000830152613d2181846137d7565b905092915050565b6000602082019050613d3e6000830184613844565b92915050565b60006020820190508181036000830152613d5e81846138c5565b905092915050565b60006020820190508181036000830152613d7f8161392f565b9050919050565b60006020820190508181036000830152613d9f81613952565b9050919050565b60006020820190508181036000830152613dbf81613975565b9050919050565b60006020820190508181036000830152613ddf81613998565b9050919050565b60006020820190508181036000830152613dff816139bb565b9050919050565b60006020820190508181036000830152613e1f816139de565b9050919050565b60006020820190508181036000830152613e3f81613a01565b9050919050565b60006020820190508181036000830152613e5f81613a24565b9050919050565b60006020820190508181036000830152613e7f81613a47565b9050919050565b60006020820190508181036000830152613e9f81613a6a565b9050919050565b60006020820190508181036000830152613ebf81613a8d565b9050919050565b60006020820190508181036000830152613edf81613ab0565b9050919050565b60006020820190508181036000830152613eff81613ad3565b9050919050565b60006020820190508181036000830152613f208184613b38565b905092915050565b6000602082019050613f3d6000830184613c36565b92915050565b6000606082019050613f586000830186613c36565b613f6560208301856137b9565b613f726040830184613c36565b949350505050565b600061014082019050613f90600083018d613c36565b8181036020830152613fa2818c6138c5565b90508181036040830152613fb6818b6138c5565b90508181036060830152613fca818a6138c5565b90508181036080830152613fde81896138c5565b9050613fed60a0830188613c36565b613ffa60c0830187613844565b61400760e0830186613844565b614015610100830185613c36565b6140236101208301846137b9565b9b9a5050505050505050505050565b600061403c61404d565b905061404882826142fb565b919050565b6000604051905090565b600067ffffffffffffffff82111561407257614071614433565b5b61407b82614462565b9050602081019050919050565b600067ffffffffffffffff8211156140a3576140a2614433565b5b6140ac82614462565b9050602081019050919050565b6000819050602082019050919050565b600081519050919050565b600081519050919050565b600081519050919050565b6000602082019050919050565b600082825260208201905092915050565b600082825260208201905092915050565b600082825260208201905092915050565b600082825260208201905092915050565b600081905092915050565b60006141518261427d565b915061415c8361427d565b9250827fffffffffffffffffffffffffffffffffffffffffffffffffffffffffffffffff03821115614191576141906143a6565b5b828201905092915050565b60006141a78261427d565b91506141b28361427d565b9250826141c2576141c16143d5565b5b828204905092915050565b60006141d88261427d565b91506141e38361427d565b9250828210156141f6576141f56143a6565b5b828203905092915050565b600061420c8261425d565b9050919050565b600061421e8261425d565b9050919050565b60008115159050919050565b60007fffffffff0000000000000000000000000000000000000000000000000000000082169050919050565b600073ffffffffffffffffffffffffffffffffffffffff82169050919050565b6000819050919050565b82818337600083830152505050565b60005b838110156142b4578082015181840152602081019050614299565b838111156142c3576000848401525b50505050565b600060028204905060018216806142e157607f821691505b602082108114156142f5576142f4614404565b5b50919050565b61430482614462565b810181811067ffffffffffffffff8211171561432357614322614433565b5b80604052505050565b60006143378261427d565b91507fffffffffffffffffffffffffffffffffffffffffffffffffffffffffffffffff82141561436a576143696143a6565b5b600182019050919050565b60006143808261427d565b915061438b8361427d565b92508261439b5761439a6143d5565b5b828206905092915050565b7f4e487b7100000000000000000000000000000000000000000000000000000000600052601160045260246000fd5b7f4e487b7100000000000000000000000000000000000000000000000000000000600052601260045260246000fd5b7f4e487b7100000000000000000000000000000000000000000000000000000000600052602260045260246000fd5b7f4e487b7100000000000000000000000000000000000000000000000000000000600052604160045260246000fd5b6000601f19601f8301169050919050565b7f4552433732313a207472616e7366657220746f206e6f6e20455243373231526560008201527f63656976657220696d706c656d656e7465720000000000000000000000000000602082015250565b7f4552433732313a207472616e736665722066726f6d20696e636f72726563742060008201527f6f776e6572000000000000000000000000000000000000000000000000000000602082015250565b7f4552433732313a20746f6b656e20616c7265616479206d696e74656400000000600082015250565b7f4f726368617264204e6f742041636365707465642042792044414f0000000000600082015250565b7f4552433732313a207472616e7366657220746f20746865207a65726f2061646460008201527f7265737300000000000000000000000000000000000000000000000000000000602082015250565b7f4552433732313a20617070726f766520746f2063616c6c657200000000000000600082015250565b7f4552433732313a2061646472657373207a65726f206973206e6f74206120766160008201527f6c6964206f776e65720000000000000000000000000000000000000000000000602082015250565b7f4552433732313a20617070726f76652063616c6c6572206973206e6f7420746f60008201527f6b656e206f776e6572206e6f7220617070726f76656420666f7220616c6c0000602082015250565b7f4552433732313a206d696e7420746f20746865207a65726f2061646472657373600082015250565b7f4552433732313a20696e76616c696420746f6b656e2049440000000000000000600082015250565b7f506c65617365207370656369667920616e20616d6f756e740000000000000000600082015250565b7f4552433732313a20617070726f76616c20746f2063757272656e74206f776e6560008201527f7200000000000000000000000000000000000000000000000000000000000000602082015250565b7f4552433732313a2063616c6c6572206973206e6f7420746f6b656e206f776e6560008201527f72206e6f7220617070726f766564000000000000000000000000000000000000602082015250565b61479b81614201565b81146147a657600080fd5b50565b6147b281614213565b81146147bd57600080fd5b50565b6147c981614225565b81146147d457600080fd5b50565b6147e081614231565b81146147eb57600080fd5b50565b6147f78161427d565b811461480257600080fd5b5056fea2646970667358221220700585aac6d1181c5cf536022644c7e33ff50efa0a8a85879a1bcb16ffa79a3764736f6c63430008010033",
  "immutableReferences": {},
  "source": "// SPDX-License-Identifier: MIT\npragma solidity ^0.8.0;\n\nimport \"@openzeppelin/contracts/token/ERC721/extensions/ERC721URIStorage.sol\";\n\nimport \"./interfaces/IERC20.sol\";\nimport {SafeMath} from \"./utils/SafeMath.sol\";\n\ncontract OrchardDAO  is ERC721URIStorage {\n    using SafeMath for uint256;\n    \n    uint256 public orchardsCount;\n    uint256 public tokenId;\n    uint256 public minimumStake;\n    IERC20 governanceToken;\n\n    struct orchards {\n        uint256 orchardId;\n        string name;\n        string link;\n        string country;\n        string farm;\n        uint256 areaSize;\n        bool accepted;\n        bool stakesAccumulated;\n        uint256 stakesGathered;\n        address payable orchardAddress;\n    }\n\n    struct orchardDonation {\n        uint256 orchardId;\n        address payable sender;\n        uint256 amount;\n    }\n\n    orchardDonation[] public donationsLedger;\n\n    mapping(uint256 => orchards) public proposals;\n    mapping(uint256 => mapping(address => orchardDonation)) public userDonations;\n    mapping(uint256 => orchardDonation[]) public orchardsAllDonations;\n\n    constructor(IERC20 tokenAddress) ERC721(\"TrophyChar\", \"TRP\"){\n        orchardsCount = 0;\n        minimumStake = 10 ether;\n        governanceToken = tokenAddress;\n    } \n\n    function orchardProposal(\n        string memory name, \n        string memory link, \n        string memory country,\n        string memory farm,\n        uint256 areaSize,\n        address payable orchardAddress\n    ) public {\n        orchardsCount = orchardsCount + 1;\n        tokenId = tokenId + 1;\n\n        proposals[orchardsCount] = orchards(\n            orchardsCount,\n            name,\n            link,\n            country,\n            farm,\n            areaSize,\n            false,\n            false,\n            0,\n            orchardAddress\n        );\n\n        _safeMint(address(this), tokenId);\n    }\n\n    function delagateStake(uint256 proposalId, uint256 amount) public {\n        require(amount != 0, \"Please specify an amount\");\n\n        governanceToken.transferFrom(msg.sender, address(this), amount);\n\n        orchards memory _orchards = proposals[proposalId];\n\n        _orchards.stakesGathered = _orchards.stakesGathered + amount;\n        \n        if(_orchards.stakesGathered >= minimumStake) {\n            _orchards.stakesAccumulated = true;\n            _orchards.accepted = true;\n        }\n\n        proposals[proposalId] = _orchards;\n    }\n\n    function getProposal(uint256 proposalId) public view returns(orchards memory){\n        return proposals[proposalId];\n    }\n\n    function getOrchardDonation(uint256 orchardId) public view returns(orchardDonation[] memory){\n        return orchardsAllDonations[orchardId];\n    }\n\n    function donateToOrchard(uint256 orchardId, uint256 amount) public payable {\n        orchards memory _orchards = proposals[orchardId];\n\n        require(_orchards.accepted, \"Orchard Not Accepted By DAO\");\n\n        orchardDonation memory _donation = userDonations[orchardId][msg.sender];\n\n        _donation.amount = _donation.amount + amount;\n        _donation.sender = payable(msg.sender);\n        _donation.orchardId = orchardId;\n\n        userDonations[orchardId][msg.sender] = _donation;\n\n        donationsLedger.push(\n            orchardDonation(\n                orchardId,\n                payable(msg.sender),\n                amount\n            )\n        );\n\n        orchardsAllDonations[orchardId] = donationsLedger;\n\n        _orchards.orchardAddress.transfer(amount);\n    } \n}",
  "sourcePath": "/Users/sagarbehara/Work/sides/gitcoin/petgram/src/contracts/orchardDAO.sol",
  "compiler": {
    "name": "solc",
    "version": "0.8.1+commit.df193b15.Emscripten.clang"
  },
  "schemaVersion": "3.4.1",
  "updatedAt": "2022-07-17T21:39:18.579Z",
  "networkType": "ethereum",
  "devdoc": {
    "kind": "dev",
    "methods": {
      "approve(address,uint256)": {
        "details": "See {IERC721-approve}."
      },
      "balanceOf(address)": {
        "details": "See {IERC721-balanceOf}."
      },
      "getApproved(uint256)": {
        "details": "See {IERC721-getApproved}."
      },
      "isApprovedForAll(address,address)": {
        "details": "See {IERC721-isApprovedForAll}."
      },
      "name()": {
        "details": "See {IERC721Metadata-name}."
      },
      "ownerOf(uint256)": {
        "details": "See {IERC721-ownerOf}."
      },
      "safeTransferFrom(address,address,uint256)": {
        "details": "See {IERC721-safeTransferFrom}."
      },
      "safeTransferFrom(address,address,uint256,bytes)": {
        "details": "See {IERC721-safeTransferFrom}."
      },
      "setApprovalForAll(address,bool)": {
        "details": "See {IERC721-setApprovalForAll}."
      },
      "supportsInterface(bytes4)": {
        "details": "See {IERC165-supportsInterface}."
      },
      "symbol()": {
        "details": "See {IERC721Metadata-symbol}."
      },
      "tokenURI(uint256)": {
        "details": "See {IERC721Metadata-tokenURI}."
      },
      "transferFrom(address,address,uint256)": {
        "details": "See {IERC721-transferFrom}."
      }
    },
    "version": 1
  },
  "userdoc": {
    "kind": "user",
    "methods": {},
    "version": 1
  }
}