{
  "contractName": "Vault",
  "abi": [
    {
      "inputs": [],
      "stateMutability": "nonpayable",
      "type": "constructor"
    },
    {
      "inputs": [
        {
          "internalType": "contract IERC20",
          "name": "tokenAddress",
          "type": "address"
        },
        {
          "internalType": "uint256",
          "name": "amount",
          "type": "uint256"
        }
      ],
      "name": "depositErc20",
      "outputs": [],
      "stateMutability": "payable",
      "type": "function",
      "payable": true
    }
  ],
  "bytecode": "0x608060405234801561001057600080fd5b506000808190555060006001819055506104c48061002f6000396000f3fe60806040526004361061001e5760003560e01c80636548b40d14610023575b600080fd5b61003d600480360381019061003891906102b0565b61003f565b005b8173ffffffffffffffffffffffffffffffffffffffff1663095ea7b330836040518363ffffffff1660e01b815260040161007a929190610341565b602060405180830381600087803b15801561009457600080fd5b505af11580156100a8573d6000803e3d6000fd5b505050506040513d601f19601f820116820180604052508101906100cc9190610287565b508173ffffffffffffffffffffffffffffffffffffffff166323b872dd3330846040518463ffffffff1660e01b815260040161010a9392919061030a565b602060405180830381600087803b15801561012457600080fd5b505af1158015610138573d6000803e3d6000fd5b505050506040513d601f19601f8201168201806040525081019061015c9190610287565b508060015461016b919061036a565b6001819055506001600054610180919061036a565b60008190555060405180604001604052803373ffffffffffffffffffffffffffffffffffffffff16815260200182815250600260003373ffffffffffffffffffffffffffffffffffffffff1673ffffffffffffffffffffffffffffffffffffffff16815260200190815260200160002060008201518160000160006101000a81548173ffffffffffffffffffffffffffffffffffffffff021916908373ffffffffffffffffffffffffffffffffffffffff160217905550602082015181600101559050505050565b60008151905061025781610449565b92915050565b60008135905061026c81610460565b92915050565b60008135905061028181610477565b92915050565b60006020828403121561029957600080fd5b60006102a784828501610248565b91505092915050565b600080604083850312156102c357600080fd5b60006102d18582860161025d565b92505060206102e285828601610272565b9150509250929050565b6102f5816103c0565b82525050565b61030481610410565b82525050565b600060608201905061031f60008301866102ec565b61032c60208301856102ec565b61033960408301846102fb565b949350505050565b600060408201905061035660008301856102ec565b61036360208301846102fb565b9392505050565b600061037582610410565b915061038083610410565b9250827fffffffffffffffffffffffffffffffffffffffffffffffffffffffffffffffff038211156103b5576103b461041a565b5b828201905092915050565b60006103cb826103f0565b9050919050565b60008115159050919050565b60006103e9826103c0565b9050919050565b600073ffffffffffffffffffffffffffffffffffffffff82169050919050565b6000819050919050565b7f4e487b7100000000000000000000000000000000000000000000000000000000600052601160045260246000fd5b610452816103d2565b811461045d57600080fd5b50565b610469816103de565b811461047457600080fd5b50565b61048081610410565b811461048b57600080fd5b5056fea26469706673582212200d7a393a1d7fa601acc1a24fb30d69cec278f3d588a2170c0aa15ebdd14ef28c64736f6c63430008010033",
  "immutableReferences": {},
  "source": "// SPDX-License-Identifier: MIT\npragma solidity ^0.8.0;\n\nimport \"@openzeppelin/contracts/token/ERC721/extensions/ERC721URIStorage.sol\";\nimport \"@openzeppelin/contracts/utils/Strings.sol\";\n\nimport \"./link/VRFConsumerBase.sol\";\nimport \"./interfaces/IERC20.sol\";\nimport {SafeMath} from \"./utils/SafeMath.sol\";\n\ncontract Vault {\n    using SafeMath for uint256;\n    uint256 donationCount;\n    uint256 donationsAccumulated;\n\n    struct donotaion {\n        address sender;\n        uint256 amount;\n    }\n\n    mapping(address => donotaion) donations;\n\n    constructor() {\n        donationCount = 0;\n        donationsAccumulated = 0;\n    }\n\n    function depositErc20(IERC20 tokenAddress, uint256 amount) public payable {\n        tokenAddress.approve(address(this), amount);\n        tokenAddress.transferFrom(msg.sender, address(this), amount);\n\n        donationsAccumulated = donationsAccumulated + amount;\n        donationCount = donationCount + 1;\n        donations[msg.sender] = donotaion(\n            msg.sender,\n            amount\n        );\n    }\n\n    // function distrubuteRandomFund() public payable {\n\n    // }\n}",
  "sourcePath": "/Users/sagarbehara/Work/sides/gitcoin/petgram/src/contracts/vault.sol",
  "compiler": {
    "name": "solc",
    "version": "0.8.1+commit.df193b15.Emscripten.clang"
  },
  "schemaVersion": "3.4.1",
  "updatedAt": "2022-07-17T21:39:18.563Z",
  "networkType": "ethereum",
  "devdoc": {
    "kind": "dev",
    "methods": {},
    "version": 1
  },
  "userdoc": {
    "kind": "user",
    "methods": {},
    "version": 1
  }
}